{
  "contractName": "WeaponRegistry",
  "abi": [
    {
      "anonymous": false,
      "inputs": [
        {
          "indexed": true,
          "internalType": "uint256",
          "name": "weaponId",
          "type": "uint256"
        }
      ],
      "name": "WeaponDecommissioned",
      "type": "event"
    },
    {
      "anonymous": false,
      "inputs": [
        {
          "indexed": true,
          "internalType": "uint256",
          "name": "weaponId",
          "type": "uint256"
        },
        {
          "indexed": true,
          "internalType": "uint256",
          "name": "typeId",
          "type": "uint256"
        },
        {
          "indexed": false,
          "internalType": "string",
          "name": "serialNumber",
          "type": "string"
        }
      ],
      "name": "WeaponRegistered",
      "type": "event"
    },
    {
      "anonymous": false,
      "inputs": [
        {
          "indexed": true,
          "internalType": "uint256",
          "name": "weaponId",
          "type": "uint256"
        },
        {
          "indexed": true,
          "internalType": "uint256",
          "name": "userId",
          "type": "uint256"
        },
        {
          "indexed": false,
          "internalType": "string",
          "name": "transactionType",
          "type": "string"
        },
        {
          "indexed": false,
          "internalType": "uint256",
          "name": "timestamp",
          "type": "uint256"
        },
        {
          "indexed": false,
          "internalType": "string",
          "name": "status",
          "type": "string"
        }
      ],
      "name": "WeaponStatusUpdated",
      "type": "event"
    },
    {
      "constant": true,
      "inputs": [
        {
          "internalType": "uint256",
          "name": "",
          "type": "uint256"
        }
      ],
      "name": "statuses",
      "outputs": [
        {
          "internalType": "uint256",
          "name": "weaponId",
          "type": "uint256"
        },
        {
          "internalType": "uint256",
          "name": "userId",
          "type": "uint256"
        },
        {
          "internalType": "string",
          "name": "transactionType",
          "type": "string"
        },
        {
          "internalType": "uint256",
          "name": "timestamp",
          "type": "uint256"
        },
        {
          "internalType": "string",
          "name": "status",
          "type": "string"
        }
      ],
      "payable": false,
      "stateMutability": "view",
      "type": "function"
    },
    {
      "constant": true,
      "inputs": [
        {
          "internalType": "uint256",
          "name": "",
          "type": "uint256"
        }
      ],
      "name": "weapons",
      "outputs": [
        {
          "internalType": "uint256",
          "name": "weaponId",
          "type": "uint256"
        },
        {
          "internalType": "uint256",
          "name": "typeId",
          "type": "uint256"
        },
        {
          "internalType": "string",
          "name": "serialNumber",
          "type": "string"
        },
        {
          "internalType": "string",
          "name": "manufacturer",
          "type": "string"
        },
        {
          "internalType": "string",
          "name": "model",
          "type": "string"
        },
        {
          "internalType": "string",
          "name": "caliber",
          "type": "string"
        },
        {
          "internalType": "string",
          "name": "currentLocation",
          "type": "string"
        },
        {
          "internalType": "string",
          "name": "status",
          "type": "string"
        }
      ],
      "payable": false,
      "stateMutability": "view",
      "type": "function"
    },
    {
      "constant": false,
      "inputs": [
        {
          "internalType": "uint256",
          "name": "_typeId",
          "type": "uint256"
        },
        {
          "internalType": "string",
          "name": "_serialNumber",
          "type": "string"
        },
        {
          "internalType": "string",
          "name": "_manufacturer",
          "type": "string"
        },
        {
          "internalType": "string",
          "name": "_model",
          "type": "string"
        },
        {
          "internalType": "string",
          "name": "_caliber",
          "type": "string"
        },
        {
          "internalType": "string",
          "name": "_currentLocation",
          "type": "string"
        },
        {
          "internalType": "string",
          "name": "_status",
          "type": "string"
        }
      ],
      "name": "registerWeapon",
      "outputs": [
        {
          "internalType": "uint256",
          "name": "",
          "type": "uint256"
        }
      ],
      "payable": false,
      "stateMutability": "nonpayable",
      "type": "function"
    },
    {
      "constant": false,
      "inputs": [
        {
          "internalType": "uint256",
          "name": "_weaponId",
          "type": "uint256"
        },
        {
          "internalType": "uint256",
          "name": "_userId",
          "type": "uint256"
        },
        {
          "internalType": "string",
          "name": "_newStatus",
          "type": "string"
        },
        {
          "internalType": "string",
          "name": "_transactionType",
          "type": "string"
        }
      ],
      "name": "updateWeaponStatus",
      "outputs": [],
      "payable": false,
      "stateMutability": "nonpayable",
      "type": "function"
    },
    {
      "constant": false,
      "inputs": [
        {
          "internalType": "uint256",
          "name": "_weaponId",
          "type": "uint256"
        }
      ],
      "name": "decommissionWeapon",
      "outputs": [],
      "payable": false,
      "stateMutability": "nonpayable",
      "type": "function"
    }
  ],
  "bytecode": "0x608060405234801561001057600080fd5b506117fe806100206000396000f3fe608060405234801561001057600080fd5b50600436106100575760003560e01c806315cc6d5b1461005c578063330123261461008a578063555e73c8146101f057806386137b93146104c1578063e67b932c1461088d575b600080fd5b6100886004803603602081101561007257600080fd5b81019080803590602001909291905050506109b5565b005b6101ee600480360360808110156100a057600080fd5b810190808035906020019092919080359060200190929190803590602001906401000000008111156100d157600080fd5b8201836020820111156100e357600080fd5b8035906020019184600183028401116401000000008311171561010557600080fd5b91908080601f016020809104026020016040519081016040528093929190818152602001838380828437600081840152601f19601f8201169050808301925050505050505091929192908035906020019064010000000081111561016857600080fd5b82018360208201111561017a57600080fd5b8035906020019184600183028401116401000000008311171561019c57600080fd5b91908080601f016020809104026020016040519081016040528093929190818152602001838380828437600081840152601f19601f820116905080830192505050505050509192919290505050610bf6565b005b61021c6004803603602081101561020657600080fd5b8101908080359060200190929190505050610e80565b6040518089815260200188815260200180602001806020018060200180602001806020018060200187810387528d818151815260200191508051906020019080838360005b8381101561027c578082015181840152602081019050610261565b50505050905090810190601f1680156102a95780820380516001836020036101000a031916815260200191505b5087810386528c818151815260200191508051906020019080838360005b838110156102e25780820151818401526020810190506102c7565b50505050905090810190601f16801561030f5780820380516001836020036101000a031916815260200191505b5087810385528b818151815260200191508051906020019080838360005b8381101561034857808201518184015260208101905061032d565b50505050905090810190601f1680156103755780820380516001836020036101000a031916815260200191505b5087810384528a818151815260200191508051906020019080838360005b838110156103ae578082015181840152602081019050610393565b50505050905090810190601f1680156103db5780820380516001836020036101000a031916815260200191505b50878103835289818151815260200191508051906020019080838360005b838110156104145780820151818401526020810190506103f9565b50505050905090810190601f1680156104415780820380516001836020036101000a031916815260200191505b50878103825288818151815260200191508051906020019080838360005b8381101561047a57808201518184015260208101905061045f565b50505050905090810190601f1680156104a75780820380516001836020036101000a031916815260200191505b509e50505050505050505050505050505060405180910390f35b610877600480360360e08110156104d757600080fd5b8101908080359060200190929190803590602001906401000000008111156104fe57600080fd5b82018360208201111561051057600080fd5b8035906020019184600183028401116401000000008311171561053257600080fd5b91908080601f016020809104026020016040519081016040528093929190818152602001838380828437600081840152601f19601f8201169050808301925050505050505091929192908035906020019064010000000081111561059557600080fd5b8201836020820111156105a757600080fd5b803590602001918460018302840111640100000000831117156105c957600080fd5b91908080601f016020809104026020016040519081016040528093929190818152602001838380828437600081840152601f19601f8201169050808301925050505050505091929192908035906020019064010000000081111561062c57600080fd5b82018360208201111561063e57600080fd5b8035906020019184600183028401116401000000008311171561066057600080fd5b91908080601f016020809104026020016040519081016040528093929190818152602001838380828437600081840152601f19601f820116905080830192505050505050509192919290803590602001906401000000008111156106c357600080fd5b8201836020820111156106d557600080fd5b803590602001918460018302840111640100000000831117156106f757600080fd5b91908080601f016020809104026020016040519081016040528093929190818152602001838380828437600081840152601f19601f8201169050808301925050505050505091929192908035906020019064010000000081111561075a57600080fd5b82018360208201111561076c57600080fd5b8035906020019184600183028401116401000000008311171561078e57600080fd5b91908080601f016020809104026020016040519081016040528093929190818152602001838380828437600081840152601f19601f820116905080830192505050505050509192919290803590602001906401000000008111156107f157600080fd5b82018360208201111561080357600080fd5b8035906020019184600183028401116401000000008311171561082557600080fd5b91908080601f016020809104026020016040519081016040528093929190818152602001838380828437600081840152601f19601f820116905080830192505050505050509192919290505050611265565b6040518082815260200191505060405180910390f35b6108b9600480360360208110156108a357600080fd5b8101908080359060200190929190505050611531565b604051808681526020018581526020018060200184815260200180602001838103835286818151815260200191508051906020019080838360005b8381101561090f5780820151818401526020810190506108f4565b50505050905090810190601f16801561093c5780820380516001836020036101000a031916815260200191505b50838103825284818151815260200191508051906020019080838360005b8381101561097557808201518184015260208101905061095a565b50505050905090810190601f1680156109a25780820380516001836020036101000a031916815260200191505b5097505050505050505060405180910390f35b6000811180156109ca57506000805490508111155b610a3c576040517f08c379a00000000000000000000000000000000000000000000000000000000081526004018080602001828103825260168152602001807f576561706f6e20646f6573206e6f742065786973742e0000000000000000000081525060200191505060405180910390fd5b6000806001830381548110610a4d57fe5b906000526020600020906008020190506040518060400160405280600e81526020017f4465636f6d6d697373696f6e6564000000000000000000000000000000000000815250816007019080519060200190610aaa9291906116a4565b5060016040518060a00160405280848152602001600081526020016040518060400160405280600c81526020017f4465636f6d6d697373696f6e000000000000000000000000000000000000000081525081526020014281526020016040518060400160405280600e81526020017f4465636f6d6d697373696f6e65640000000000000000000000000000000000008152508152509080600181540180825580915050906001820390600052602060002090600502016000909192909190915060008201518160000155602082015181600101556040820151816002019080519060200190610b9a929190611724565b50606082015181600301556080820151816004019080519060200190610bc1929190611724565b50505050817fc5d0d88c9ee9fb447ce6b80f76c0c4911143ef6002d11db4e78ec1d11af52aa160405160405180910390a25050565b600084118015610c0b57506000805490508411155b610c7d576040517f08c379a00000000000000000000000000000000000000000000000000000000081526004018080602001828103825260168152602001807f576561706f6e20646f6573206e6f742065786973742e0000000000000000000081525060200191505060405180910390fd5b6000806001860381548110610c8e57fe5b9060005260206000209060080201905082816007019080519060200190610cb69291906116a4565b5060016040518060a00160405280878152602001868152602001848152602001428152602001858152509080600181540180825580915050906001820390600052602060002090600502016000909192909190915060008201518160000155602082015181600101556040820151816002019080519060200190610d3b929190611724565b50606082015181600301556080820151816004019080519060200190610d62929190611724565b5050505083857fb1b546e6cbc1a310ac320197681d87a6e1259cc921abef70429111628477ec2e844287604051808060200184815260200180602001838103835286818151815260200191508051906020019080838360005b83811015610dd6578082015181840152602081019050610dbb565b50505050905090810190601f168015610e035780820380516001836020036101000a031916815260200191505b50838103825284818151815260200191508051906020019080838360005b83811015610e3c578082015181840152602081019050610e21565b50505050905090810190601f168015610e695780820380516001836020036101000a031916815260200191505b509550505050505060405180910390a35050505050565b60008181548110610e8d57fe5b9060005260206000209060080201600091509050806000015490806001015490806002018054600181600116156101000203166002900480601f016020809104026020016040519081016040528092919081815260200182805460018160011615610100020316600290048015610f455780601f10610f1a57610100808354040283529160200191610f45565b820191906000526020600020905b815481529060010190602001808311610f2857829003601f168201915b505050505090806003018054600181600116156101000203166002900480601f016020809104026020016040519081016040528092919081815260200182805460018160011615610100020316600290048015610fe35780601f10610fb857610100808354040283529160200191610fe3565b820191906000526020600020905b815481529060010190602001808311610fc657829003601f168201915b505050505090806004018054600181600116156101000203166002900480601f0160208091040260200160405190810160405280929190818152602001828054600181600116156101000203166002900480156110815780601f1061105657610100808354040283529160200191611081565b820191906000526020600020905b81548152906001019060200180831161106457829003601f168201915b505050505090806005018054600181600116156101000203166002900480601f01602080910402602001604051908101604052809291908181526020018280546001816001161561010002031660029004801561111f5780601f106110f45761010080835404028352916020019161111f565b820191906000526020600020905b81548152906001019060200180831161110257829003601f168201915b505050505090806006018054600181600116156101000203166002900480601f0160208091040260200160405190810160405280929190818152602001828054600181600116156101000203166002900480156111bd5780601f10611192576101008083540402835291602001916111bd565b820191906000526020600020905b8154815290600101906020018083116111a057829003601f168201915b505050505090806007018054600181600116156101000203166002900480601f01602080910402602001604051908101604052809291908181526020018280546001816001161561010002031660029004801561125b5780601f106112305761010080835404028352916020019161125b565b820191906000526020600020905b81548152906001019060200180831161123e57829003601f168201915b5050505050905088565b600080600160008054905001905060006040518061010001604052808381526020018b81526020018a815260200189815260200188815260200187815260200186815260200185815250908060018154018082558091505090600182039060005260206000209060080201600090919290919091506000820151816000015560208201518160010155604082015181600201908051906020019061130a929190611724565b506060820151816003019080519060200190611327929190611724565b506080820151816004019080519060200190611344929190611724565b5060a0820151816005019080519060200190611361929190611724565b5060c082015181600601908051906020019061137e929190611724565b5060e082015181600701908051906020019061139b929190611724565b5050505060016040518060a00160405280838152602001600081526020016040518060400160405280600c81526020017f526567697374726174696f6e00000000000000000000000000000000000000008152508152602001428152602001858152509080600181540180825580915050906001820390600052602060002090600502016000909192909190915060008201518160000155602082015181600101556040820151816002019080519060200190611459929190611724565b50606082015181600301556080820151816004019080519060200190611480929190611724565b5050505088817fa0e06dcbe007dac2ef3ae3e289ee18cc91e9f8136b3312cd673ddfdc34bf92e18a6040518080602001828103825283818151815260200191508051906020019080838360005b838110156114e85780820151818401526020810190506114cd565b50505050905090810190601f1680156115155780820380516001836020036101000a031916815260200191505b509250505060405180910390a380915050979650505050505050565b6001818154811061153e57fe5b9060005260206000209060050201600091509050806000015490806001015490806002018054600181600116156101000203166002900480601f0160208091040260200160405190810160405280929190818152602001828054600181600116156101000203166002900480156115f65780601f106115cb576101008083540402835291602001916115f6565b820191906000526020600020905b8154815290600101906020018083116115d957829003601f168201915b505050505090806003015490806004018054600181600116156101000203166002900480601f01602080910402602001604051908101604052809291908181526020018280546001816001161561010002031660029004801561169a5780601f1061166f5761010080835404028352916020019161169a565b820191906000526020600020905b81548152906001019060200180831161167d57829003601f168201915b5050505050905085565b828054600181600116156101000203166002900490600052602060002090601f016020900481019282601f106116e557805160ff1916838001178555611713565b82800160010185558215611713579182015b828111156117125782518255916020019190600101906116f7565b5b50905061172091906117a4565b5090565b828054600181600116156101000203166002900490600052602060002090601f016020900481019282601f1061176557805160ff1916838001178555611793565b82800160010185558215611793579182015b82811115611792578251825591602001919060010190611777565b5b5090506117a091906117a4565b5090565b6117c691905b808211156117c25760008160009055506001016117aa565b5090565b9056fea265627a7a723158204a332b3fafd54528640ab55149d8eec4419a9c926c12a79679ed9afa33c4692464736f6c63430005110032",
  "source": "// SPDX-License-Identifier: MIT\r\npragma solidity >=0.4.22 <0.9.0;\r\n\r\ncontract WeaponRegistry {\r\n    event WeaponRegistered(\r\n        uint indexed weaponId,\r\n        uint indexed typeId,\r\n        string serialNumber\r\n    );\r\n    event WeaponStatusUpdated(\r\n        uint indexed weaponId,\r\n        uint indexed userId,\r\n        string transactionType,\r\n        uint timestamp,\r\n        string status\r\n    );\r\n    event WeaponDecommissioned(uint indexed weaponId);\r\n\r\n    struct Weapon {\r\n        uint weaponId;\r\n        uint typeId;\r\n        string serialNumber;\r\n        string manufacturer;\r\n        string model;\r\n        string caliber;\r\n        string currentLocation;\r\n        string status;\r\n    }\r\n\r\n    struct WeaponStatus {\r\n        uint weaponId;\r\n        uint userId;\r\n        string transactionType;\r\n        uint timestamp;\r\n        string status;\r\n    }\r\n\r\n    Weapon[] public weapons;\r\n    WeaponStatus[] public statuses;\r\n\r\n    function registerWeapon(\r\n        uint _typeId,\r\n        string memory _serialNumber,\r\n        string memory _manufacturer,\r\n        string memory _model,\r\n        string memory _caliber,\r\n        string memory _currentLocation,\r\n        string memory _status\r\n    ) public returns (uint) {\r\n        uint newWeaponId = weapons.length + 1;\r\n        weapons.push(\r\n            Weapon(\r\n                newWeaponId,\r\n                _typeId,\r\n                _serialNumber,\r\n                _manufacturer,\r\n                _model,\r\n                _caliber,\r\n                _currentLocation,\r\n                _status\r\n            )\r\n        );\r\n        statuses.push(\r\n            WeaponStatus(\r\n                newWeaponId,\r\n                0, // Assuming system or admin user ID, adjust as necessary\r\n                \"Registration\",\r\n                block.timestamp,\r\n                _status\r\n            )\r\n        );\r\n        emit WeaponRegistered(newWeaponId, _typeId, _serialNumber);\r\n        return newWeaponId;\r\n    }\r\n\r\n    function updateWeaponStatus(\r\n        uint _weaponId,\r\n        uint _userId,\r\n        string memory _newStatus,\r\n        string memory _transactionType\r\n    ) public {\r\n        require(\r\n            _weaponId > 0 && _weaponId <= weapons.length,\r\n            \"Weapon does not exist.\"\r\n        );\r\n        Weapon storage weapon = weapons[_weaponId - 1];\r\n        weapon.status = _newStatus;\r\n\r\n        statuses.push(\r\n            WeaponStatus(\r\n                _weaponId,\r\n                _userId,\r\n                _transactionType,\r\n                block.timestamp,\r\n                _newStatus\r\n            )\r\n        );\r\n        emit WeaponStatusUpdated(\r\n            _weaponId,\r\n            _userId,\r\n            _transactionType,\r\n            block.timestamp,\r\n            _newStatus\r\n        );\r\n    }\r\n\r\n    function decommissionWeapon(uint _weaponId) public {\r\n        require(\r\n            _weaponId > 0 && _weaponId <= weapons.length,\r\n            \"Weapon does not exist.\"\r\n        );\r\n        Weapon storage weapon = weapons[_weaponId - 1];\r\n        weapon.status = \"Decommissioned\";\r\n\r\n        statuses.push(\r\n            WeaponStatus(\r\n                _weaponId,\r\n                0, // Assuming system or admin user ID, adjust as necessary\r\n                \"Decommission\",\r\n                block.timestamp,\r\n                \"Decommissioned\"\r\n            )\r\n        );\r\n        emit WeaponDecommissioned(_weaponId);\r\n    }\r\n}\r\n",
  "sourcePath": "C:\\Users\\Shivaram Kumar\\Documents\\Code\\project\\aaaa\\weapons-dbms\\contracts\\transactions.sol",
  "compiler": {
    "name": "solc",
    "version": "0.5.17+commit.d19bba13.Emscripten.clang"
  },
  "schemaVersion": "3.4.16",
  "updatedAt": "2024-04-14T16:30:07.080Z",
  "networkType": "ethereum",
  "devdoc": {
    "methods": {}
  },
  "userdoc": {
    "methods": {}
  }
}