{
  "contractName": "WeaponRegistry",
  "abi": [
    {
      "anonymous": false,
      "inputs": [
        {
          "indexed": true,
          "internalType": "uint256",
          "name": "weaponId",
          "type": "uint256"
        }
      ],
      "name": "WeaponDecommissioned",
      "type": "event"
    },
    {
      "anonymous": false,
      "inputs": [
        {
          "indexed": true,
          "internalType": "uint256",
          "name": "weaponId",
          "type": "uint256"
        },
        {
          "indexed": true,
          "internalType": "uint256",
          "name": "typeId",
          "type": "uint256"
        },
        {
          "indexed": false,
          "internalType": "string",
          "name": "serialNumber",
          "type": "string"
        }
      ],
      "name": "WeaponRegistered",
      "type": "event"
    },
    {
      "anonymous": false,
      "inputs": [
        {
          "indexed": true,
          "internalType": "uint256",
          "name": "weaponId",
          "type": "uint256"
        },
        {
          "indexed": true,
          "internalType": "address",
          "name": "userId",
          "type": "address"
        },
        {
          "indexed": false,
          "internalType": "string",
          "name": "transactionType",
          "type": "string"
        },
        {
          "indexed": false,
          "internalType": "uint256",
          "name": "timestamp",
          "type": "uint256"
        },
        {
          "indexed": false,
          "internalType": "string",
          "name": "status",
          "type": "string"
        }
      ],
      "name": "WeaponStatusUpdated",
      "type": "event"
    },
    {
      "constant": true,
      "inputs": [
        {
          "internalType": "string",
          "name": "",
          "type": "string"
        }
      ],
      "name": "serialNumberExists",
      "outputs": [
        {
          "internalType": "bool",
          "name": "",
          "type": "bool"
        }
      ],
      "payable": false,
      "stateMutability": "view",
      "type": "function"
    },
    {
      "constant": true,
      "inputs": [
        {
          "internalType": "uint256",
          "name": "",
          "type": "uint256"
        }
      ],
      "name": "weapons",
      "outputs": [
        {
          "internalType": "uint256",
          "name": "weaponId",
          "type": "uint256"
        },
        {
          "internalType": "uint256",
          "name": "typeId",
          "type": "uint256"
        },
        {
          "internalType": "string",
          "name": "serialNumber",
          "type": "string"
        },
        {
          "internalType": "string",
          "name": "manufacturer",
          "type": "string"
        },
        {
          "internalType": "string",
          "name": "model",
          "type": "string"
        },
        {
          "internalType": "string",
          "name": "caliber",
          "type": "string"
        },
        {
          "internalType": "string",
          "name": "currentLocation",
          "type": "string"
        },
        {
          "internalType": "string",
          "name": "status",
          "type": "string"
        }
      ],
      "payable": false,
      "stateMutability": "view",
      "type": "function"
    },
    {
      "constant": false,
      "inputs": [
        {
          "internalType": "uint256",
          "name": "_typeId",
          "type": "uint256"
        },
        {
          "internalType": "string",
          "name": "_serialNumber",
          "type": "string"
        },
        {
          "internalType": "string",
          "name": "_manufacturer",
          "type": "string"
        },
        {
          "internalType": "string",
          "name": "_model",
          "type": "string"
        },
        {
          "internalType": "string",
          "name": "_caliber",
          "type": "string"
        },
        {
          "internalType": "string",
          "name": "_currentLocation",
          "type": "string"
        },
        {
          "internalType": "string",
          "name": "_status",
          "type": "string"
        }
      ],
      "name": "registerWeapon",
      "outputs": [
        {
          "internalType": "uint256",
          "name": "",
          "type": "uint256"
        }
      ],
      "payable": false,
      "stateMutability": "nonpayable",
      "type": "function"
    },
    {
      "constant": false,
      "inputs": [
        {
          "internalType": "uint256",
          "name": "_weaponId",
          "type": "uint256"
        }
      ],
      "name": "decommissionWeapon",
      "outputs": [],
      "payable": false,
      "stateMutability": "nonpayable",
      "type": "function"
    },
    {
      "constant": false,
      "inputs": [
        {
          "internalType": "uint256",
          "name": "_weaponId",
          "type": "uint256"
        },
        {
          "internalType": "string",
          "name": "_newStatus",
          "type": "string"
        }
      ],
      "name": "updateWeaponStatus",
      "outputs": [],
      "payable": false,
      "stateMutability": "nonpayable",
      "type": "function"
    }
  ],
  "bytecode": "0x608060405234801561001057600080fd5b506115a9806100206000396000f3fe608060405234801561001057600080fd5b50600436106100575760003560e01c806315cc6d5b1461005c5780631641bc5f1461008a578063555e73c81461014f578063598f83711461042057806386137b93146104f3575b600080fd5b6100886004803603602081101561007257600080fd5b81019080803590602001909291905050506108bf565b005b61014d600480360360408110156100a057600080fd5b8101908080359060200190929190803590602001906401000000008111156100c757600080fd5b8201836020820111156100d957600080fd5b803590602001918460018302840111640100000000831117156100fb57600080fd5b91908080601f016020809104026020016040519081016040528093929190818152602001838380828437600081840152601f19601f820116905080830192505050505050509192919290505050610b1e565b005b61017b6004803603602081101561016557600080fd5b8101908080359060200190929190505050610cd9565b6040518089815260200188815260200180602001806020018060200180602001806020018060200187810387528d818151815260200191508051906020019080838360005b838110156101db5780820151818401526020810190506101c0565b50505050905090810190601f1680156102085780820380516001836020036101000a031916815260200191505b5087810386528c818151815260200191508051906020019080838360005b83811015610241578082015181840152602081019050610226565b50505050905090810190601f16801561026e5780820380516001836020036101000a031916815260200191505b5087810385528b818151815260200191508051906020019080838360005b838110156102a757808201518184015260208101905061028c565b50505050905090810190601f1680156102d45780820380516001836020036101000a031916815260200191505b5087810384528a818151815260200191508051906020019080838360005b8381101561030d5780820151818401526020810190506102f2565b50505050905090810190601f16801561033a5780820380516001836020036101000a031916815260200191505b50878103835289818151815260200191508051906020019080838360005b83811015610373578082015181840152602081019050610358565b50505050905090810190601f1680156103a05780820380516001836020036101000a031916815260200191505b50878103825288818151815260200191508051906020019080838360005b838110156103d95780820151818401526020810190506103be565b50505050905090810190601f1680156104065780820380516001836020036101000a031916815260200191505b509e50505050505050505050505050505060405180910390f35b6104d96004803603602081101561043657600080fd5b810190808035906020019064010000000081111561045357600080fd5b82018360208201111561046557600080fd5b8035906020019184600183028401116401000000008311171561048757600080fd5b91908080601f016020809104026020016040519081016040528093929190818152602001838380828437600081840152601f19601f8201169050808301925050505050505091929192905050506110be565b604051808215151515815260200191505060405180910390f35b6108a9600480360360e081101561050957600080fd5b81019080803590602001909291908035906020019064010000000081111561053057600080fd5b82018360208201111561054257600080fd5b8035906020019184600183028401116401000000008311171561056457600080fd5b91908080601f016020809104026020016040519081016040528093929190818152602001838380828437600081840152601f19601f820116905080830192505050505050509192919290803590602001906401000000008111156105c757600080fd5b8201836020820111156105d957600080fd5b803590602001918460018302840111640100000000831117156105fb57600080fd5b91908080601f016020809104026020016040519081016040528093929190818152602001838380828437600081840152601f19601f8201169050808301925050505050505091929192908035906020019064010000000081111561065e57600080fd5b82018360208201111561067057600080fd5b8035906020019184600183028401116401000000008311171561069257600080fd5b91908080601f016020809104026020016040519081016040528093929190818152602001838380828437600081840152601f19601f820116905080830192505050505050509192919290803590602001906401000000008111156106f557600080fd5b82018360208201111561070757600080fd5b8035906020019184600183028401116401000000008311171561072957600080fd5b91908080601f016020809104026020016040519081016040528093929190818152602001838380828437600081840152601f19601f8201169050808301925050505050505091929192908035906020019064010000000081111561078c57600080fd5b82018360208201111561079e57600080fd5b803590602001918460018302840111640100000000831117156107c057600080fd5b91908080601f016020809104026020016040519081016040528093929190818152602001838380828437600081840152601f19601f8201169050808301925050505050505091929192908035906020019064010000000081111561082357600080fd5b82018360208201111561083557600080fd5b8035906020019184600183028401116401000000008311171561085757600080fd5b91908080601f016020809104026020016040519081016040528093929190818152602001838380828437600081840152601f19601f8201169050808301925050505050505091929192905050506110f4565b6040518082815260200191505060405180910390f35b6000811180156108d457506000805490508111155b610946576040517f08c379a00000000000000000000000000000000000000000000000000000000081526004018080602001828103825260198152602001807f576561706f6e20494420646f6573206e6f742065786973742e0000000000000081525060200191505060405180910390fd5b600080600183038154811061095757fe5b9060005260206000209060080201905060405160200180807f6465636f6d6d697373696f6e6564000000000000000000000000000000000000815250600e01905060405160208183030381529060405280519060200120816007016040516020018082805460018160011615610100020316600290048015610a105780601f106109ee576101008083540402835291820191610a10565b820191906000526020600020905b8154815290600101906020018083116109fc575b5050915050604051602081830303815290604052805190602001201415610a9f576040517f08c379a000000000000000000000000000000000000000000000000000000000815260040180806020018281038252601e8152602001807f576561706f6e20616c7265616479206465636f6d6d697373696f6e65642e000081525060200191505060405180910390fd5b6040518060400160405280600e81526020017f6465636f6d6d697373696f6e6564000000000000000000000000000000000000815250816007019080519060200190610aec92919061142e565b50817fc5d0d88c9ee9fb447ce6b80f76c0c4911143ef6002d11db4e78ec1d11af52aa160405160405180910390a25050565b600082118015610b3357506000805490508211155b610ba5576040517f08c379a00000000000000000000000000000000000000000000000000000000081526004018080602001828103825260198152602001807f576561706f6e20494420646f6573206e6f742065786973742e0000000000000081525060200191505060405180910390fd5b6000806001840381548110610bb657fe5b9060005260206000209060080201905081816007019080519060200190610bde92919061142e565b503373ffffffffffffffffffffffffffffffffffffffff16837f65af3f857d69d3a3df1fe7f9f0803b54282bd4ab348a0aab9c917fad6b44ead442856040518080602001848152602001806020018381038352600d8152602001807f5374617475732055706461746500000000000000000000000000000000000000815250602001838103825284818151815260200191508051906020019080838360005b83811015610c98578082015181840152602081019050610c7d565b50505050905090810190601f168015610cc55780820380516001836020036101000a031916815260200191505b5094505050505060405180910390a3505050565b60008181548110610ce657fe5b9060005260206000209060080201600091509050806000015490806001015490806002018054600181600116156101000203166002900480601f016020809104026020016040519081016040528092919081815260200182805460018160011615610100020316600290048015610d9e5780601f10610d7357610100808354040283529160200191610d9e565b820191906000526020600020905b815481529060010190602001808311610d8157829003601f168201915b505050505090806003018054600181600116156101000203166002900480601f016020809104026020016040519081016040528092919081815260200182805460018160011615610100020316600290048015610e3c5780601f10610e1157610100808354040283529160200191610e3c565b820191906000526020600020905b815481529060010190602001808311610e1f57829003601f168201915b505050505090806004018054600181600116156101000203166002900480601f016020809104026020016040519081016040528092919081815260200182805460018160011615610100020316600290048015610eda5780601f10610eaf57610100808354040283529160200191610eda565b820191906000526020600020905b815481529060010190602001808311610ebd57829003601f168201915b505050505090806005018054600181600116156101000203166002900480601f016020809104026020016040519081016040528092919081815260200182805460018160011615610100020316600290048015610f785780601f10610f4d57610100808354040283529160200191610f78565b820191906000526020600020905b815481529060010190602001808311610f5b57829003601f168201915b505050505090806006018054600181600116156101000203166002900480601f0160208091040260200160405190810160405280929190818152602001828054600181600116156101000203166002900480156110165780601f10610feb57610100808354040283529160200191611016565b820191906000526020600020905b815481529060010190602001808311610ff957829003601f168201915b505050505090806007018054600181600116156101000203166002900480601f0160208091040260200160405190810160405280929190818152602001828054600181600116156101000203166002900480156110b45780601f10611089576101008083540402835291602001916110b4565b820191906000526020600020905b81548152906001019060200180831161109757829003601f168201915b5050505050905088565b6001818051602081018201805184825260208301602085012081835280955050505050506000915054906101000a900460ff1681565b60006001876040518082805190602001908083835b6020831061112c5780518252602082019150602081019050602083039250611109565b6001836020036101000a038019825116818451168082178552505050505050905001915050908152602001604051809103902060009054906101000a900460ff16156111c3576040517f08c379a00000000000000000000000000000000000000000000000000000000081526004018080602001828103825260218152602001806115546021913960400191505060405180910390fd5b600060405180610100016040528060016000805490500181526020018a81526020018981526020018881526020018781526020018681526020018581526020018481525090806001815401808255809150509060018203906000526020600020906008020160009091929091909150600082015181600001556020820151816001015560408201518160020190805190602001906112629291906114ae565b50606082015181600301908051906020019061127f9291906114ae565b50608082015181600401908051906020019061129c9291906114ae565b5060a08201518160050190805190602001906112b99291906114ae565b5060c08201518160060190805190602001906112d69291906114ae565b5060e08201518160070190805190602001906112f39291906114ae565b50505050600180886040518082805190602001908083835b6020831061132e578051825260208201915060208101905060208303925061130b565b6001836020036101000a038019825116818451168082178552505050505050905001915050908152602001604051809103902060006101000a81548160ff021916908315150217905550876000805490507fa0e06dcbe007dac2ef3ae3e289ee18cc91e9f8136b3312cd673ddfdc34bf92e1896040518080602001828103825283818151815260200191508051906020019080838360005b838110156113e15780820151818401526020810190506113c6565b50505050905090810190601f16801561140e5780820380516001836020036101000a031916815260200191505b509250505060405180910390a36000805490509050979650505050505050565b828054600181600116156101000203166002900490600052602060002090601f016020900481019282601f1061146f57805160ff191683800117855561149d565b8280016001018555821561149d579182015b8281111561149c578251825591602001919060010190611481565b5b5090506114aa919061152e565b5090565b828054600181600116156101000203166002900490600052602060002090601f016020900481019282601f106114ef57805160ff191683800117855561151d565b8280016001018555821561151d579182015b8281111561151c578251825591602001919060010190611501565b5b50905061152a919061152e565b5090565b61155091905b8082111561154c576000816000905550600101611534565b5090565b9056fe53657269616c206e756d62657220616c726561647920726567697374657265642ea265627a7a72315820140663466300854731f620fb5ee51208de0e28b87d323b071a75cee10ce2f34c64736f6c63430005110032",
  "source": "// SPDX-License-Identifier: MIT\r\npragma solidity >=0.4.22 <0.9.0;\r\n\r\ncontract WeaponRegistry {\r\n    event WeaponRegistered(\r\n        uint indexed weaponId,\r\n        uint indexed typeId,\r\n        string serialNumber\r\n    );\r\n    event WeaponStatusUpdated(\r\n        uint indexed weaponId,\r\n        address indexed userId,\r\n        string transactionType,\r\n        uint timestamp,\r\n        string status\r\n    );\r\n    event WeaponDecommissioned(uint indexed weaponId);\r\n\r\n    struct Weapon {\r\n        uint weaponId;\r\n        uint typeId;\r\n        string serialNumber;\r\n        string manufacturer;\r\n        string model;\r\n        string caliber;\r\n        string currentLocation;\r\n        string status;\r\n    }\r\n\r\n    Weapon[] public weapons;\r\n    mapping(string => bool) public serialNumberExists;\r\n\r\n    function registerWeapon(\r\n        uint _typeId,\r\n        string memory _serialNumber,\r\n        string memory _manufacturer,\r\n        string memory _model,\r\n        string memory _caliber,\r\n        string memory _currentLocation,\r\n        string memory _status\r\n    ) public returns (uint) {\r\n        require(\r\n            !serialNumberExists[_serialNumber],\r\n            \"Serial number already registered.\"\r\n        );\r\n\r\n        weapons.push(\r\n            Weapon({\r\n                weaponId: weapons.length + 1,\r\n                typeId: _typeId,\r\n                serialNumber: _serialNumber,\r\n                manufacturer: _manufacturer,\r\n                model: _model,\r\n                caliber: _caliber,\r\n                currentLocation: _currentLocation,\r\n                status: _status\r\n            })\r\n        );\r\n        serialNumberExists[_serialNumber] = true;\r\n        emit WeaponRegistered(weapons.length, _typeId, _serialNumber);\r\n        return weapons.length;\r\n    }\r\n\r\n    function decommissionWeapon(uint _weaponId) public {\r\n        require(\r\n            _weaponId > 0 && _weaponId <= weapons.length,\r\n            \"Weapon ID does not exist.\"\r\n        );\r\n        Weapon storage weapon = weapons[_weaponId - 1];\r\n\r\n        require(\r\n            keccak256(abi.encodePacked(weapon.status)) !=\r\n                keccak256(abi.encodePacked(\"decommissioned\")),\r\n            \"Weapon already decommissioned.\"\r\n        );\r\n\r\n        weapon.status = \"decommissioned\";\r\n        emit WeaponDecommissioned(_weaponId);\r\n    }\r\n\r\n    function updateWeaponStatus(\r\n        uint _weaponId,\r\n        string memory _newStatus\r\n    ) public {\r\n        require(\r\n            _weaponId > 0 && _weaponId <= weapons.length,\r\n            \"Weapon ID does not exist.\"\r\n        );\r\n        Weapon storage weapon = weapons[_weaponId - 1];\r\n        weapon.status = _newStatus;\r\n        emit WeaponStatusUpdated(\r\n            _weaponId,\r\n            msg.sender,\r\n            \"Status Update\",\r\n            block.timestamp,\r\n            _newStatus\r\n        );\r\n    }\r\n}\r\n",
  "sourcePath": "C:\\Users\\Shivaram Kumar\\Documents\\Code\\project\\aaaa\\weapons-dbms\\contracts\\transactions.sol",
  "compiler": {
    "name": "solc",
    "version": "0.5.17+commit.d19bba13.Emscripten.clang"
  },
  "schemaVersion": "3.4.16",
  "updatedAt": "2024-04-15T09:45:03.834Z",
  "networkType": "ethereum",
  "devdoc": {
    "methods": {}
  },
  "userdoc": {
    "methods": {}
  }
}