{
  "contractName": "WeaponRegistry",
  "abi": [
    {
      "anonymous": false,
      "inputs": [
        {
          "indexed": true,
          "internalType": "uint256",
          "name": "weaponId",
          "type": "uint256"
        },
        {
          "indexed": true,
          "internalType": "uint256",
          "name": "typeId",
          "type": "uint256"
        },
        {
          "indexed": false,
          "internalType": "string",
          "name": "serialNumber",
          "type": "string"
        }
      ],
      "name": "WeaponRegistered",
      "type": "event"
    },
    {
      "anonymous": false,
      "inputs": [
        {
          "indexed": true,
          "internalType": "uint256",
          "name": "weaponId",
          "type": "uint256"
        },
        {
          "indexed": true,
          "internalType": "uint256",
          "name": "userId",
          "type": "uint256"
        },
        {
          "indexed": false,
          "internalType": "string",
          "name": "transactionType",
          "type": "string"
        },
        {
          "indexed": false,
          "internalType": "uint256",
          "name": "timestamp",
          "type": "uint256"
        },
        {
          "indexed": false,
          "internalType": "string",
          "name": "status",
          "type": "string"
        }
      ],
      "name": "WeaponStatusUpdated",
      "type": "event"
    },
    {
      "constant": true,
      "inputs": [
        {
          "internalType": "uint256",
          "name": "",
          "type": "uint256"
        }
      ],
      "name": "statuses",
      "outputs": [
        {
          "internalType": "uint256",
          "name": "weaponId",
          "type": "uint256"
        },
        {
          "internalType": "uint256",
          "name": "userId",
          "type": "uint256"
        },
        {
          "internalType": "string",
          "name": "transactionType",
          "type": "string"
        },
        {
          "internalType": "uint256",
          "name": "timestamp",
          "type": "uint256"
        },
        {
          "internalType": "string",
          "name": "status",
          "type": "string"
        }
      ],
      "payable": false,
      "stateMutability": "view",
      "type": "function"
    },
    {
      "constant": true,
      "inputs": [
        {
          "internalType": "uint256",
          "name": "",
          "type": "uint256"
        }
      ],
      "name": "weapons",
      "outputs": [
        {
          "internalType": "uint256",
          "name": "weaponId",
          "type": "uint256"
        },
        {
          "internalType": "uint256",
          "name": "typeId",
          "type": "uint256"
        },
        {
          "internalType": "string",
          "name": "serialNumber",
          "type": "string"
        },
        {
          "internalType": "string",
          "name": "manufacturer",
          "type": "string"
        },
        {
          "internalType": "string",
          "name": "model",
          "type": "string"
        },
        {
          "internalType": "string",
          "name": "caliber",
          "type": "string"
        },
        {
          "internalType": "string",
          "name": "currentLocation",
          "type": "string"
        },
        {
          "internalType": "string",
          "name": "status",
          "type": "string"
        }
      ],
      "payable": false,
      "stateMutability": "view",
      "type": "function"
    },
    {
      "constant": false,
      "inputs": [
        {
          "internalType": "uint256",
          "name": "_typeId",
          "type": "uint256"
        },
        {
          "internalType": "string",
          "name": "_serialNumber",
          "type": "string"
        },
        {
          "internalType": "string",
          "name": "_manufacturer",
          "type": "string"
        },
        {
          "internalType": "string",
          "name": "_model",
          "type": "string"
        },
        {
          "internalType": "string",
          "name": "_caliber",
          "type": "string"
        },
        {
          "internalType": "string",
          "name": "_currentLocation",
          "type": "string"
        },
        {
          "internalType": "string",
          "name": "_status",
          "type": "string"
        }
      ],
      "name": "registerWeapon",
      "outputs": [
        {
          "internalType": "uint256",
          "name": "",
          "type": "uint256"
        }
      ],
      "payable": false,
      "stateMutability": "nonpayable",
      "type": "function"
    },
    {
      "constant": false,
      "inputs": [
        {
          "internalType": "uint256",
          "name": "_weaponId",
          "type": "uint256"
        },
        {
          "internalType": "uint256",
          "name": "_userId",
          "type": "uint256"
        },
        {
          "internalType": "string",
          "name": "_newStatus",
          "type": "string"
        },
        {
          "internalType": "string",
          "name": "_transactionType",
          "type": "string"
        }
      ],
      "name": "updateWeaponStatus",
      "outputs": [],
      "payable": false,
      "stateMutability": "nonpayable",
      "type": "function"
    }
  ],
  "bytecode": "0x608060405234801561001057600080fd5b50611616806100206000396000f3fe608060405234801561001057600080fd5b506004361061004c5760003560e01c80633301232614610051578063555e73c8146101b757806386137b9314610488578063e67b932c14610854575b600080fd5b6101b56004803603608081101561006757600080fd5b8101908080359060200190929190803590602001909291908035906020019064010000000081111561009857600080fd5b8201836020820111156100aa57600080fd5b803590602001918460018302840111640100000000831117156100cc57600080fd5b91908080601f016020809104026020016040519081016040528093929190818152602001838380828437600081840152601f19601f8201169050808301925050505050505091929192908035906020019064010000000081111561012f57600080fd5b82018360208201111561014157600080fd5b8035906020019184600183028401116401000000008311171561016357600080fd5b91908080601f016020809104026020016040519081016040528093929190818152602001838380828437600081840152601f19601f82011690508083019250505050505050919291929050505061097c565b005b6101e3600480360360208110156101cd57600080fd5b8101908080359060200190929190505050610c0c565b6040518089815260200188815260200180602001806020018060200180602001806020018060200187810387528d818151815260200191508051906020019080838360005b83811015610243578082015181840152602081019050610228565b50505050905090810190601f1680156102705780820380516001836020036101000a031916815260200191505b5087810386528c818151815260200191508051906020019080838360005b838110156102a957808201518184015260208101905061028e565b50505050905090810190601f1680156102d65780820380516001836020036101000a031916815260200191505b5087810385528b818151815260200191508051906020019080838360005b8381101561030f5780820151818401526020810190506102f4565b50505050905090810190601f16801561033c5780820380516001836020036101000a031916815260200191505b5087810384528a818151815260200191508051906020019080838360005b8381101561037557808201518184015260208101905061035a565b50505050905090810190601f1680156103a25780820380516001836020036101000a031916815260200191505b50878103835289818151815260200191508051906020019080838360005b838110156103db5780820151818401526020810190506103c0565b50505050905090810190601f1680156104085780820380516001836020036101000a031916815260200191505b50878103825288818151815260200191508051906020019080838360005b83811015610441578082015181840152602081019050610426565b50505050905090810190601f16801561046e5780820380516001836020036101000a031916815260200191505b509e50505050505050505050505050505060405180910390f35b61083e600480360360e081101561049e57600080fd5b8101908080359060200190929190803590602001906401000000008111156104c557600080fd5b8201836020820111156104d757600080fd5b803590602001918460018302840111640100000000831117156104f957600080fd5b91908080601f016020809104026020016040519081016040528093929190818152602001838380828437600081840152601f19601f8201169050808301925050505050505091929192908035906020019064010000000081111561055c57600080fd5b82018360208201111561056e57600080fd5b8035906020019184600183028401116401000000008311171561059057600080fd5b91908080601f016020809104026020016040519081016040528093929190818152602001838380828437600081840152601f19601f820116905080830192505050505050509192919290803590602001906401000000008111156105f357600080fd5b82018360208201111561060557600080fd5b8035906020019184600183028401116401000000008311171561062757600080fd5b91908080601f016020809104026020016040519081016040528093929190818152602001838380828437600081840152601f19601f8201169050808301925050505050505091929192908035906020019064010000000081111561068a57600080fd5b82018360208201111561069c57600080fd5b803590602001918460018302840111640100000000831117156106be57600080fd5b91908080601f016020809104026020016040519081016040528093929190818152602001838380828437600081840152601f19601f8201169050808301925050505050505091929192908035906020019064010000000081111561072157600080fd5b82018360208201111561073357600080fd5b8035906020019184600183028401116401000000008311171561075557600080fd5b91908080601f016020809104026020016040519081016040528093929190818152602001838380828437600081840152601f19601f820116905080830192505050505050509192919290803590602001906401000000008111156107b857600080fd5b8201836020820111156107ca57600080fd5b803590602001918460018302840111640100000000831117156107ec57600080fd5b91908080601f016020809104026020016040519081016040528093929190818152602001838380828437600081840152601f19601f820116905080830192505050505050509192919290505050610ff1565b6040518082815260200191505060405180910390f35b6108806004803603602081101561086a57600080fd5b8101908080359060200190929190505050611328565b604051808681526020018581526020018060200184815260200180602001838103835286818151815260200191508051906020019080838360005b838110156108d65780820151818401526020810190506108bb565b50505050905090810190601f1680156109035780820380516001836020036101000a031916815260200191505b50838103825284818151815260200191508051906020019080838360005b8381101561093c578082015181840152602081019050610921565b50505050905090810190601f1680156109695780820380516001836020036101000a031916815260200191505b5097505050505050505060405180910390f35b60008411801561099157506000805490508411155b610a03576040517f08c379a00000000000000000000000000000000000000000000000000000000081526004018080602001828103825260198152602001807f576561706f6e20494420646f6573206e6f742065786973742e0000000000000081525060200191505060405180910390fd5b60006001850390506000808281548110610a1957fe5b9060005260206000209060080201905083816007019080519060200190610a4192919061149b565b5060016040518060a00160405280888152602001878152602001858152602001428152602001868152509080600181540180825580915050906001820390600052602060002090600502016000909192909190915060008201518160000155602082015181600101556040820151816002019080519060200190610ac692919061151b565b50606082015181600301556080820151816004019080519060200190610aed92919061151b565b5050505084867fb1b546e6cbc1a310ac320197681d87a6e1259cc921abef70429111628477ec2e854288604051808060200184815260200180602001838103835286818151815260200191508051906020019080838360005b83811015610b61578082015181840152602081019050610b46565b50505050905090810190601f168015610b8e5780820380516001836020036101000a031916815260200191505b50838103825284818151815260200191508051906020019080838360005b83811015610bc7578082015181840152602081019050610bac565b50505050905090810190601f168015610bf45780820380516001836020036101000a031916815260200191505b509550505050505060405180910390a3505050505050565b60008181548110610c1957fe5b9060005260206000209060080201600091509050806000015490806001015490806002018054600181600116156101000203166002900480601f016020809104026020016040519081016040528092919081815260200182805460018160011615610100020316600290048015610cd15780601f10610ca657610100808354040283529160200191610cd1565b820191906000526020600020905b815481529060010190602001808311610cb457829003601f168201915b505050505090806003018054600181600116156101000203166002900480601f016020809104026020016040519081016040528092919081815260200182805460018160011615610100020316600290048015610d6f5780601f10610d4457610100808354040283529160200191610d6f565b820191906000526020600020905b815481529060010190602001808311610d5257829003601f168201915b505050505090806004018054600181600116156101000203166002900480601f016020809104026020016040519081016040528092919081815260200182805460018160011615610100020316600290048015610e0d5780601f10610de257610100808354040283529160200191610e0d565b820191906000526020600020905b815481529060010190602001808311610df057829003601f168201915b505050505090806005018054600181600116156101000203166002900480601f016020809104026020016040519081016040528092919081815260200182805460018160011615610100020316600290048015610eab5780601f10610e8057610100808354040283529160200191610eab565b820191906000526020600020905b815481529060010190602001808311610e8e57829003601f168201915b505050505090806006018054600181600116156101000203166002900480601f016020809104026020016040519081016040528092919081815260200182805460018160011615610100020316600290048015610f495780601f10610f1e57610100808354040283529160200191610f49565b820191906000526020600020905b815481529060010190602001808311610f2c57829003601f168201915b505050505090806007018054600181600116156101000203166002900480601f016020809104026020016040519081016040528092919081815260200182805460018160011615610100020316600290048015610fe75780601f10610fbc57610100808354040283529160200191610fe7565b820191906000526020600020905b815481529060010190602001808311610fca57829003601f168201915b5050505050905088565b60006002876040518082805190602001908083835b602083106110295780518252602082019150602081019050602083039250611006565b6001836020036101000a038019825116818451168082178552505050505050905001915050908152602001604051809103902060009054906101000a900460ff16156110c0576040517f08c379a00000000000000000000000000000000000000000000000000000000081526004018080602001828103825260218152602001806115c16021913960400191505060405180910390fd5b6000600160008054905001905060006040518061010001604052808381526020018b81526020018a815260200189815260200188815260200187815260200186815260200185815250908060018154018082558091505090600182039060005260206000209060080201600090919290919091506000820151816000015560208201518160010155604082015181600201908051906020019061116492919061151b565b50606082015181600301908051906020019061118192919061151b565b50608082015181600401908051906020019061119e92919061151b565b5060a08201518160050190805190602001906111bb92919061151b565b5060c08201518160060190805190602001906111d892919061151b565b5060e08201518160070190805190602001906111f592919061151b565b5050505060016002896040518082805190602001908083835b60208310611231578051825260208201915060208101905060208303925061120e565b6001836020036101000a038019825116818451168082178552505050505050905001915050908152602001604051809103902060006101000a81548160ff02191690831515021790555088817fa0e06dcbe007dac2ef3ae3e289ee18cc91e9f8136b3312cd673ddfdc34bf92e18a6040518080602001828103825283818151815260200191508051906020019080838360005b838110156112df5780820151818401526020810190506112c4565b50505050905090810190601f16801561130c5780820380516001836020036101000a031916815260200191505b509250505060405180910390a380915050979650505050505050565b6001818154811061133557fe5b9060005260206000209060050201600091509050806000015490806001015490806002018054600181600116156101000203166002900480601f0160208091040260200160405190810160405280929190818152602001828054600181600116156101000203166002900480156113ed5780601f106113c2576101008083540402835291602001916113ed565b820191906000526020600020905b8154815290600101906020018083116113d057829003601f168201915b505050505090806003015490806004018054600181600116156101000203166002900480601f0160208091040260200160405190810160405280929190818152602001828054600181600116156101000203166002900480156114915780601f1061146657610100808354040283529160200191611491565b820191906000526020600020905b81548152906001019060200180831161147457829003601f168201915b5050505050905085565b828054600181600116156101000203166002900490600052602060002090601f016020900481019282601f106114dc57805160ff191683800117855561150a565b8280016001018555821561150a579182015b828111156115095782518255916020019190600101906114ee565b5b509050611517919061159b565b5090565b828054600181600116156101000203166002900490600052602060002090601f016020900481019282601f1061155c57805160ff191683800117855561158a565b8280016001018555821561158a579182015b8281111561158957825182559160200191906001019061156e565b5b509050611597919061159b565b5090565b6115bd91905b808211156115b95760008160009055506001016115a1565b5090565b9056fe53657269616c206e756d62657220616c726561647920726567697374657265642ea265627a7a7231582009def02a2dc8b4c6d0e51520afe8cdd7521d099e17ee9a10ef22f754daec2f5864736f6c63430005110032",
  "source": "// SPDX-License-Identifier: MIT\r\npragma solidity >=0.4.22 <0.9.0;\r\n\r\ncontract WeaponRegistry {\r\n    event WeaponRegistered(\r\n        uint indexed weaponId,\r\n        uint indexed typeId,\r\n        string serialNumber\r\n    );\r\n    event WeaponStatusUpdated(\r\n        uint indexed weaponId,\r\n        uint indexed userId,\r\n        string transactionType,\r\n        uint timestamp,\r\n        string status\r\n    );\r\n\r\n    struct Weapon {\r\n        uint weaponId;\r\n        uint typeId;\r\n        string serialNumber;\r\n        string manufacturer;\r\n        string model;\r\n        string caliber;\r\n        string currentLocation;\r\n        string status;\r\n    }\r\n\r\n    struct WeaponStatus {\r\n        uint weaponId;\r\n        uint userId;\r\n        string transactionType;\r\n        uint timestamp;\r\n        string status;\r\n    }\r\n\r\n    Weapon[] public weapons;\r\n    WeaponStatus[] public statuses;\r\n    mapping(string => bool) private serialNumberExists; // Tracks if a serial number is already registered\r\n\r\n    function registerWeapon(\r\n        uint _typeId,\r\n        string memory _serialNumber,\r\n        string memory _manufacturer,\r\n        string memory _model,\r\n        string memory _caliber,\r\n        string memory _currentLocation,\r\n        string memory _status\r\n    ) public returns (uint) {\r\n        require(\r\n            !serialNumberExists[_serialNumber],\r\n            \"Serial number already registered.\"\r\n        ); // Check for duplicate serial number\r\n        uint newWeaponId = weapons.length + 1;\r\n        weapons.push(\r\n            Weapon(\r\n                newWeaponId,\r\n                _typeId,\r\n                _serialNumber,\r\n                _manufacturer,\r\n                _model,\r\n                _caliber,\r\n                _currentLocation,\r\n                _status\r\n            )\r\n        );\r\n        serialNumberExists[_serialNumber] = true; // Mark this serial number as registered\r\n        emit WeaponRegistered(newWeaponId, _typeId, _serialNumber);\r\n        return newWeaponId;\r\n    }\r\n\r\n    function updateWeaponStatus(\r\n        uint _weaponId,\r\n        uint _userId,\r\n        string memory _newStatus,\r\n        string memory _transactionType\r\n    ) public {\r\n        require(\r\n            _weaponId > 0 && _weaponId <= weapons.length,\r\n            \"Weapon ID does not exist.\"\r\n        );\r\n        uint index = _weaponId - 1;\r\n\r\n        Weapon storage weapon = weapons[index];\r\n        weapon.status = _newStatus;\r\n\r\n        statuses.push(\r\n            WeaponStatus(\r\n                _weaponId,\r\n                _userId,\r\n                _transactionType,\r\n                block.timestamp,\r\n                _newStatus\r\n            )\r\n        );\r\n        emit WeaponStatusUpdated(\r\n            _weaponId,\r\n            _userId,\r\n            _transactionType,\r\n            block.timestamp,\r\n            _newStatus\r\n        );\r\n    }\r\n}\r\n",
  "sourcePath": "C:\\Users\\Shivaram Kumar\\Documents\\Code\\project\\aaaa\\weapons-dbms\\contracts\\transactions.sol",
  "compiler": {
    "name": "solc",
    "version": "0.5.17+commit.d19bba13.Emscripten.clang"
  },
  "schemaVersion": "3.4.16",
  "updatedAt": "2024-04-15T00:07:26.418Z",
  "networkType": "ethereum",
  "devdoc": {
    "methods": {}
  },
  "userdoc": {
    "methods": {}
  }
}